:100000008031342A0000CC34733A65376937671D74
:10001000A01264162023F232E33A6537E334611DFF
:10002000A01264162032421DA0126416A037F232CC
:10003000EA303A10E432F23263346100CC34733A7D
:1000400065376937671DA01264162023F232E33A40
:100050006537E334611DA01264162032421DA012E0
:100060006416A037F232EA303A10693DF13AE932CB
:100070007232610021008D1222008D120830F800CA
:1000800041280000F8175428F8132000E00C220043
:1000900003188D16031C8D12781754287813F80B4B
:1000A0004528522800008D161B308400840B5628EA
:1000B00059280000F81B4428781B4E28200008000F
:1000C0000B088B1323009517151400000000891BE3
:1000D0008B170318912813087F392000D8002300BC
:1000E00011082000D900230012082000DA00580867
:1000F000E0003A2059082300910020005A0823000C
:1001000092000B088B139517151400000000891B33
:100110008B172000D70B8D288F2823009128AF281C
:100120002300130D140D7F392000D800230011087F
:100130002000D900230012082000DA005808E0004F
:100140003A2059082300910020005A082300920009
:10015000910A0319920A03102000D70B60280800A7
:100160006108F80160020318B8286008F700C42885
:10017000F7010830E200E00DF70D6108770203187F
:10018000F700F80DE20BBB2808002030581E303075
:10019000DC005708F700D71FD528F709F70A7708BA
:1001A000D7002D30DC00D81758145708E000643011
:1001B000E100B0207708D70030307807DD0057081D
:1001C000E0000A30E100B02030307707DF00303047
:1001D0007807DE005C08F70030305D020319F42870
:1001E000D814D81B581508295C08DD002030DC0025
:1001F00030305E02031900295814D81BD81408297E
:10020000031D5814031D08295D08DE002030DD00A1
:1002100058190F29D81812295818152918295C08B7
:10022000E0003A205D08E0003A205E08E0003A2055
:100230005F08E0003A200800CE014E080A3C031C8B
:10024000322AFA014E08F900790DD2007A0DD30056
:10025000D20DD30DFC30D20503305207F800003028
:10026000533DFA0078084C0784004D087A3D85001C
:1002700080080319B829FA014E08F900790DD20057
:100280007A0DD300D20DD30DFC30D2054C085207A5
:1002900084004D08533D85000008D400FA014E0843
:1002A000F900790DD5007A0DD600D50DD60DFC30AC
:1002B000D50501305507F8000030563DFA007808A2
:1002C0004C0784004D087A3D85000008D500FA01EE
:1002D0004E08F900790DD6007A0DD700D60DD70D4E
:1002E000FC30D60502305607F8000030573DFA00C2
:1002F00078084C0784004D087A3D85000008D60038
:100300000330230091000030920003100B302000D6
:10031000D70060205408D7001830D800C520093015
:10032000230091000030920003140E302000D7000B
:1003300060205508D7001830D800C52011302300A0
:10034000910000309200031406302000D700602096
:100350005608D7001830D800C5201530230091006A
:1003600000309200031410302000D7006020302AA3
:10037000FA014E0DD2007A0DD300D20DD30DFC3010
:10038000D2054C08520784004D08533D85000008F3
:10039000D400FA014E0DD5007A0DD600D50DD60D3C
:1003A000FC30D50501305507F8000030563DFA0005
:1003B00078084C0784004D087A3D85000008D50078
:1003C000FA014E08F9004E0DD6007A0DD700D60D71
:1003D000D70DFC30D60502305607F8000030573DE7
:1003E000FA0078084C0784004D087A3D8500000823
:1003F000D6001E30230091000030920003100B3015
:100400002000D70060205408D7001830D800C5203D
:100410002430230091000030920003140E3020009D
:10042000D70060205508D7001830D800C5202C30E0
:100430002300910000309200031406302000D70002
:1004400060205608D7001830D800C520303023006F
:10045000910000309200031412302000D700602079
:10046000CE0A1D298031452A21008D1222008D16C9
:1004700023008C018D0122009201910194019301CE
:0C04800020302000CD00CC011C296300BE
:020000040001F9
:04000E00C13FFF1FD0
:00000001FF
;PIC16F1827
;CRC=65A8  CREATED="18-Oct-22 13:51"
