:100000008031FC2A0000CE376D31F2323A10A5392A
:10001000A029653C6F1DA0126310C63263346110C5
:10002000E4322037E131E936E9326E3A6F1DA01231
:10003000E4172532AF126410A022E430641DA01230
:100040006400CC34733A65376937671DA0126416B3
:100050002023F232E33A6537E334611DA0126416BF
:100060002032421DA0126416A037F232EA303A1054
:10007000E432F23263346100CC34733A6537693765
:10008000671DA01264162023F232E33A6537E33489
:10009000611DA01264162032421DA0126416A03702
:1000A000F232EA303A10693DF13AE93272326100D7
:1000B00021008D1222008D120830F8005F28000008
:1000C000F8177228F8132100A80C220003188D16C7
:1000D000031C8D12781772287813F80B6328702888
:1000E00000008D163E308400840B74287728F81B9E
:1000F0006228781B6C28200008000B088B13230053
:100100009517151400000000891B8B170318B028E1
:1001100013087F392100A200230011082100A30049
:10012000230012082100A4002208A8002000582063
:1001300021002308230091002100240823009200BD
:100140000B088B139517151400000000891B8B17E3
:100150002000EF0BAC28AE282300B028D0282300C5
:10016000130D140D7F392100A20023001108210076
:10017000A300230012082100A4002208A8002000E8
:100180005820210023082300910021002408230087
:100190009200910A0319920A03102000EF0B7D28A8
:1001A000080021002908F80128020318DA28280885
:1001B000F700E628F7010830AA00A80DF70D290876
:1001C00077020318F700F80DAA0BDD2820000800BD
:1001D00020302100201E3030A40020006F08F700DE
:1001E000EF1FFC28F709F70A7708EF002D302100F0
:1001F000A400A017201420006F082100A80064307C
:10020000A9002000D1207708EF00303078072100C6
:10021000A50020006F082100A8000A30A9002000D6
:10022000D120303077072100A70030307807A600B2
:100230002408F7003030250203192229A014A01B3E
:10024000201536292408A5002030A40030302602CD
:1002500003192E292014A01BA0143629031D2014D5
:10026000031D36292508A6002030A50020193D29A8
:10027000A0184229201847294C292408A80020004A
:10028000582021002508A800200058202100260819
:10029000A8002000582021002708A800200058208E
:1002A00008006308FA00620884007A0885000008E4
:1002B000EA00033023009100003092000310083060
:1002C0002000EF007D2085016A0884008008031962
:1002D00078290508ED000408EC0000082100A800BA
:1002E000200058206D0885006C08840001316629C3
:1002F00008302300910000309200031007302000E6
:10030000EF007D2064082100A800200058200C3058
:100310002300910000309200031416302000EF00FB
:100320007D206608EF0018302100A0002000E820A2
:100330002F302100A800200058206708EF00183057
:100340002100A0002000E8202F302100A80020007C
:1003500058206808EF0018302100A0002000E82095
:100360001B3023009100003092000314083020005D
:10037000EF007D206508EF0018302100A00020006C
:10038000E820E90169080A3C031CE32AFA0169082C
:10039000F900790DEA007A0DEB00EA0DEB0DFC3067
:1003A000EA0503306A07F80000306B3DFA00780870
:1003B0006007840061087A3D850080080319632A7C
:1003C000FA016908F900790DEA007A0DEB00EA0DEF
:1003D000EB0DFC30EA0560086A07840061086B3D9C
:1003E00085000008EC00FA016908F900790DED00BC
:1003F0007A0DEE00ED0DEE0DFC30ED0501306D07D0
:10040000F80000306E3DFA0078086007840061084B
:100410007A3D85000008ED00FA016908F900790DC0
:10042000EE007A0DEF00EE0DEF0DFC30EE05023020
:100430006E07F80000306F3DFA007808600784000E
:1004400061087A3D85000008EE002130230091000C
:100450000030920003100B302000EF007D206C086C
:10046000EF0018302100A0002000E82027302300F2
:1004700091000030920003140E302000EF007D2028
:100480006D08EF0018302100A0002000E8202F3078
:100490002300910000309200031406302000EF008A
:1004A0007D206E08EF0018302100A0002000E82019
:1004B00033302300910000309200031410302000EC
:1004C000EF007D20E12AFA01690DEA007A0DEB00C8
:1004D000EA0DEB0DFC30EA0560086A07840061084C
:1004E0006B3D85000008EC00FA01690DED007A0D06
:1004F000EE00ED0DEE0DFC30ED0501306D07F8005E
:1005000000306E3DFA0078086007840061087A3D8B
:1005100085000008ED00FA016908F900690DEE0098
:100520007A0DEF00EE0DEF0DFC30EE0502306E0798
:10053000F80000306F3DFA00780860078400610819
:100540007A3D85000008EE003C3023009100003029
:10055000920003100B302000EF007D206C08EF00AC
:1005600018302100A0002000E82042302300910034
:100570000030920003140E302000EF007D206D0843
:10058000EF0018302100A0002000E8204A302300AE
:10059000910000309200031406302000EF007D200F
:1005A0006E08EF0018302100A0002000E8204E3037
:1005B0002300910000309200031412302000EF005D
:1005C0007D20E90AC2298031812B2030850040300E
:1005D000840000080319FA2A0130F800F701F70B2C
:1005E000EF2AF80BEE2A4A30F700F70BF52AF82A23
:1005F000800BEC2A8031842B6A30210099008D1207
:1006000022008D162000D501D40123008C018D011C
:100610002200920191019401930165302000A20013
:100620006430A3006930A4003230A500A601203058
:10063000A1000230A0004D30D6006530D7006630F2
:10064000D8001430D9000630DA000130DB00D23097
:10065000DC00DD015D080A3C031C6E2B5D0DF7001C
:10066000F70DFC30F7057708083E84002030850040
:100670000318850A01305D0780005D0DF700F70D56
:10068000FC30F7057708013E083E840020308500E5
:100690000318850A01305D0780005D0DF700F70D36
:1006A000FC30F7057708023E083E840020308500C4
:1006B0000318850A01305D0780005D0DF700F70D16
:1006C000FC30F7057708033E083E840020308500A3
:1006D0000318850A01308000DD0A2A2B2030E10052
:1006E0000830E0005608E2005708E3005808E4002C
:1006F0005908E5005A08E6005B08E7005C08E800D6
:0C07000051291430E000E52A6E2B630044
:020000040001F9
:04000E00C43FFF1ECE
:00000001FF
;PIC16F1827
;CRC=2417  CREATED="20-Oct-22 15:44"
