:060000008031142A00000B
:0800080083018031200077081C
:10001000A0007808A1007908A2007A08A3002300B4
:1000200011082000A400230012082000A5002300CE
:1000300013082000A600230014082000A7008B1D31
:1000400023280B183C282008F7002108F800220874
:10005000F9002308FA002408230091002000250855
:100060002300920020002608230093002000270888
:10007000230094000900200080313E2821008D15C6
:1000800020008D1DA801FF302700160696050B10D5
:100090008031200023284639E531F532EE31E93050
:1000A00073106110F232E734733AF230721D20009F
:1000B00031193516201935182C1035183016A01B9B
:1000C00035182C10B1252C10B125351620194B16DA
:1000D000A0194B16201A4B16201B4B16201C4B1038
:1000E0000A00D03AEC396510653620316F3A6F3727
:1000F000203861396110E337ED326E3D613900001F
:10010000CC24532A4F002030850012308400000890
:10011000031998280130F800F701F70B8D28F80B28
:100120008C284A30F700F70B93289628800B8A28F2
:100130000800390EF039F7000F300D0577048D00F7
:1001400000000D14A3280D1008000D08F7000D0E77
:100150000F39F800080021000D108D100D1120003E
:100160008D100F3021000D05F0388D0020000D1589
:1001700000000D140000A5207808B9000D10000043
:100180000D140000A5207808B8000D100F302100D4
:100190000D058D002000390EF700F030F7057708C7
:1001A0003804F8007808B800B81BB128361C8D1048
:1001B00036188D1400000D1100000D10370EB80018
:1001C0000F30B8053808B900992037080F39B80042
:1001D000B900992008002830AC000C30AD00013087
:1001E000AE000630AF000D108D100D110F30210044
:1001F0000D058D000D108D100D110F302000B20077
:1002000083200130AB002B08033C031C0F29033073
:10021000B90099200530B2008320AB0A03290230CF
:10022000B90099200530B2008320AB012B08033CB4
:10023000031C29290C302B0784002030850003186B
:10024000850A0008B000B6013008B700AB20AB0A41
:1002500016298031302A330B2E2931294030B40041
:100260003229B40101303202B40734088038B500B5
:10027000B6013508B700AB2008003108073A03196A
:100280004B290B3A03195029063A03195829023A07
:1002900003195E2963290130B200B3002B216829BC
:1002A000B6010130B700AB200230B20083206829CC
:1002B0000130B2000230B3002B216829B6011030A2
:1002C000B700AB2068290130B6003108B700AB2079
:1002D00008000B088B13230095171514000000006D
:1002E000891B8B1713087F390319B1292000AE0031
:1002F000230011082000AF00230012082000B000E6
:100300002E08B1003D212F08230091002000300865
:10031000230092000B088B139517151400000000A2
:10032000891B8B17130D140D7F390319B129200078
:10033000AE00230011082000AF00230012082000A7
:10034000B0002E08B1003D212F08230091002000AD
:10035000300823009200910A0319920A20006929AB
:100360002300200008001030AB00AC00AD002100DD
:100370008D1520008D1D122A2C08803A673C031829
:10038000D2292C08B2000130B3002B214B302300BE
:10039000910000309200200069216430B200832077
:1003A0000130AC022C08803A673C031CEF292B0873
:1003B000803A503C0318EF290C30B1003D212B0846
:1003C000B200B3012B21583023009100003092007D
:1003D000200069216430B20083200130AB022B0879
:1003E000803A503C031C082A0C30B1003D212D08F6
:1003F000B2000130B3002B21713023009100003096
:100400009200200069216430B20083200130AD02E7
:100410002D08803A633C031C112A1030AB00AC005D
:10042000AD00B7298031312A0130A800AA01A90105
:1004300023008C018D01220092019101940193010E
:100440000430210086001508C039073895008B1547
:10045000FF30270091049204C0308B042000EB2869
:10046000B3298030230091000030920020006921E0
:02047000630027
:020000040001F9
:04000E00C13FFF1ED1
:00000001FF
;PIC16F1827
;CRC=5B9B  CREATED="18-oct.-22 14:18"
